:20195000000000000000000000000000000000000000000000000000000000000000000077
:20197000000000000000000000000000000000000000000000000000000000000000000057
:20199000000000000000000000000000000000000000000000000000000000000000000037
:2019B000000000000000000000000000000000000000000000000000000000000000000017
:2019D0000000000000000000000000000000000000000000000000000000000000000000F7
:2019F0000000000000000000000000000000000000000000000000000000000000000000D7
:201A10000000000000000000000000000000000000000000000000000000000000000000B6
:201A3000000000000000000000000000000000000000000000000000000000000000000096
:201A5000C0C0C0C0C0C0C0C080000000000000C08000000000000080800000000000008036
:201A7000C0C0C0C0C0C0C0C000000000000000000000000000000000000000000000000056
:201A9000C0C0C0C0C0C0C0C000000040C00000000000004040000000000000404000000036
:201AB000000000404000000000000040400000000000004040000000000000404000000016
:201AD00080000000000000808000000000000080C0C0C0C0C0C0C0C0C000000000000080B6
:201AF00000000000000000000000000000000000C0C0C0C0C0C0C0C00000000000000000D6
:201B100000000040400000000000004040000000C0C0C0C0C0C0C0C0000000C040000000B5
:201B3000800000000000008080000000000000808000000000000080800000000000008095
:201B5000C0C0C0C0C0C0C0C0D2C3D2C3F0F0F0F0C2E1C2E1F0D2F0D2C2C3C2C3C3D2C3D28D
:201B7000C3D2C3D2C2C3C2C3D2D2F0D2C2E1C2C3C2E1C2E1F0D2F0D2D2C3C2C3C3D2C3D285
:201B9000C7CFCFCBCBC3C3C7C3C0C0CBCBF0F0C7C3C3C3D2C3C3C3E5C3D0E0CBCBC0C0C3D8
:201BB00000C3C30082CFE141C3C3C38282C3C341C3CBC3C3E1C3CFC3D2CBC3CBC3C3C3D278
:201BD000C3D2C3C2C2C3C2C3D2D2F0D2C2E1C2C3C2E1C2F0F0D2F0F0D2C3D2C3C3D2C3D2F8
:201BF000C3D2C3D2D2C3C2C3D2D2F0D2C2E1C2C3D2C3D2C3E1C2E1C2D2C3D2C3C3D2C3D23F
:201C1000E5CFCBC3C3CBCFE5C3CFCBC3C3CBCFC3E5CFCFCBCBC3CBC7C3CFCFDAD2CFCFC314
:201C3000C7CFC3C3C1CFCFC7F0CBE5E1E1C7CBC350C3E18200E1C30050C3C3D2D2C3C3D2AF
:201C5000C0C0C0C0C0C0C0C0F0F0F0F0F0F0F0F0E0F0E0F0F0F0F0F0E0F0E0F0F0F0F0F034
:201C7000F0F0F0F0F0F0F0F0F0F0F0F0E0F0E0F0E0F0E0F0F0F0F0F0F0F0F0F0F0F0F0F094
:201C9000C0C0C0C0C0C0C0C0CCCCCCCCC0C0C0C0C8C4C8C4C8C8C8C8C8CCC8CCCCC8CCC87C
:201CB000CCCCCCCCC8CCC8CCC8C8C8C8C8C4C8CCC8C4C8C4C8C8C8C8C8CCC8CCCCC8CCC8F4
:201CD000F0F0F0E0E0F0F0F0F0F0F0F0E0F0E0F0F0F0F0F0F0F0F0F0F0F0F0F0F0F0F0F034
:201CF000F0F0F0F0F0F0F0F0F0F0F0F0E0F0E0F0F0F0F0F0F0E0F0E0F0F0F0F0F0F0F0F014
:201D1000CCC8CCC8C8CCC8CCC8C8C8CCC8C4C8CCC8C4C8C4C8C8CCC8C8CCC8CCCCC8CCC893
:201D3000CCC8CCC8C8CCC8CCC8C8C8CCC8C4C8CCC8CCC8CCCCC8CCC8C8CCC8CCCCC8CCC85F
:201D50000000000000000000000000000000FF000055FF000055550000FF550000AA550023
:201D700000FFFFAA00FFFFAA00005500000055000000550000000000000000000000000004
:201D90000000000000000000000000000055FF0000FFFFAA00AA00AA000055AA0000FF00E5
:201DB0000000FFAA000055AA00AA00AA00FFFFAA0055FF000000000000000000000000001B
:201DD0000000000000000000000000000055AA0000FFFF0000FF550000AA55000000FF00A4
:201DF0000000FF000055AA0000FFAA0000FFFF0000FFFF0000000000000000000000000030
:201E10001428142869966996699669961428142841824182966996699669966941824182BE
:201E3000152A152A6B976B976B976B97152A152A00000000152A152A152A152A0000000092
:201E5000000000000000002800000000000000000000000000000000140000003C002814BE
:201E70003C28283C3C3C3C3C3C3C3E3C3D3C3E3C3D3C3F3C3D3E3F3E3D3F3F3E3D3F3F3ED7
:201E900000280000142814003C2814283C3C143C3C3C3C3C3C3C3C3C3C3C3E3C3D3C3E3C8D
:201EB0003D3C3F3C3D3E3F3E3D3F3F3E3D3F3F3E3D3F3F3E3D3F3F3E3D3F3F3E3D3F3F3E50
:201ED000000000000000000000000000140000000000000000000000140000003C00281452
:201EF0003C28283C3C3C3C3C3C3C3E3C3D3C3E3C3D3C3F3C3D3E3F3E3D3F3F3E3D3F3F3E57
:201F10000000000000000000000000000000000000000000000000000000000000000000B1
:201F300000000000140000003C0028003C143C143C3C3E3C3D3C3F3C3D3E3F3E3D3F3F3EA2
:201F5000142814286996699669966996142814280000000000000000000000000000000085
:201F7000000000000000000000000000000000000000000000000000000000000000000051
:201F9000FF00AA00AA555555AAFFAA00AA000000FF00AA00AA555555AAFFAA00AA00000093
:201FB000AAAAAA555555555500AAAA55AA000000AAAAAA555555555500AAAA55AA0000001D
:201FD000FF00AA555500AA55AAFF0000AA000000FF00AA55FF00AA55AAFF0000AA000000FD
:201FF000AA00AA55FF00AA5500AAAA00AA000000AA00AA555500AA5500AAAA00AA00000031
:20201000AA00FF555500AA55AAAAAA55FF000000AA00FF555500AA55AAAAAA55FF00000068
:20203000000000000000000000000000000000000000000000000000000000000000000090
:202050000000000000000000000000000000000000A8540000936300D69363E9FC9363FCDB
:2020700054E9D6A854D2E1A8C358A4C333F0F03333F0F033C358A4C354D2E1A854E9D6A8EC
:20209000E99363D6D69363E90093630000A8540040544B44555C4C56455E584752534A43EA
:2020B000008080800080808000FCFCA800FCFCA880FCC08080FCC0C0C0C0C0C0C0C0C0C018
:2020D000C0C0C0C0C0C0C0C080FCC0C080FCC08000FCFCA800FCFCA80080808000808080F8
:2020F00000C0C00000C0C0000040800000408000D4E8D4E8D4E8D4E854E8D4A854E8D4A8F0
:20211000D4C0C0E8D4C0C0E854C0C0A854C0C0A8D4C0C0E8D4C0C0E8004080000040800047
:20213000404040004040400054FCFC0054FCFC0040C0FC40C0C0FC40C0C0C0C0C0C0C0C07F
:20215000C0C0C0C0C0C0C0C0C0C0FC4040C0FC4054FCFC0054FCFC0040404000404040005F
:202170000040800000408000D4C0C0E8D4C0C0E854C0C0A854C0C0A8D4C0C0E8D4C0C0E8E7
:2021900054E8D4A854E8D4A8D4E8D4E8D4E8D4E8004080000040800000C0C00000C0C0004F
:2021B000684040146840401414FCFC2814FCFC284068BC40C068BC40C09468C0C09468C0EF
:2021D000C09468C0C09468C0C068BC404068BC4014FCFC2814FCFC286840401468404014CF
:2021F000008080800080808000CCCC8800CCCC8880CCC08080CCC0C0C0C0C0C0C0C0C0C037
:20221000C0C0C0C0C0C0C0C080CCC0C080CCC08000CCCC8800CCCC88008080800080808016
:2022300000C0C00000C0C0000040800000408000C4C8C4C8C4C8C4C844C8C48844C8C4882E
:20225000C4C0C0C8C4C0C0C844C0C08844C0C088C4C0C0C8C4C0C0C8004080000040800026
:20227000404040004040400044CCCC0044CCCC0040C0CC40C0C0CC40C0C0C0C0C0C0C0C07E
:20229000C0C0C0C0C0C0C0C0C0C0CC4040C0CC4044CCCC0044CCCC0040404000404040005E
:2022B0000040800000408000C4C0C0C8C4C0C0C844C0C08844C0C088C4C0C0C8C4C0C0C8C6
:2022D00044C8C48844C8C488C4C8C4C8C4C8C4C8004080000040800000C0C00000C0C0008E
:2022F000684040146840401414CCCC2814CCCC2840689C40C0689C40C09468C0C09468C0AE
:20231000C09468C0C09468C0C0689C4040689C4014CCCC2814CCCC2868404014684040148D
:202330000080808000808080000F0F0A000F0F0A800FC080800FC0C0C0C0C0C0C0C0C0C05F
:20235000C0C0C0C0C0C0C0C0800FC0C0800FC080000F0F0A000F0F0A00808080008080803F
:2023700000C0C00000C0C0000040800000408000854A854A854A854A054A850A054A850AD5
:2023900085C0C04A85C0C04A05C0C00A05C0C00A85C0C04A85C0C04A004080000040800053
:2023B0004040400040404000050F0F00050F0F0040C00F40C0C00F40C0C0C0C0C0C0C0C029
:2023D000C0C0C0C0C0C0C0C0C0C00F4040C00F40050F0F00050F0F00404040004040400009
:2023F000004080000040800085C0C04A85C0C04A05C0C00A05C0C00A85C0C04A85C0C04AF3
:20241000054A850A054A850A854A854A854A854A004080000040800000C0C00000C0C00034
:202430006840401468404014140F0F28140F0F2840681E40C0681E40C09468C0C09468C05C
:20245000C09468C0C09468C0C0681E4040681E40140F0F28140F0F2868404014684040143C
:202470000080808000808080003F3F2A003F3F2A803FC080803FC0C0C0C0C0C0C0C0C0C0BE
:20249000C0C0C0C0C0C0C0C0803FC0C0803FC080003F3F2A003F3F2A00808080008080809E
:2024B00000C0C00000C0C0000040800000408000956A956A956A956A156A952A156A952A14
:2024D00095C0C06A95C0C06A15C0C02A15C0C02A95C0C06A95C0C06A0040800000408000F2
:2024F0004040400040404000153F3F00153F3F0040C03F40C0C03F40C0C0C0C0C0C0C0C0A8
:20251000C0C0C0C0C0C0C0C0C0C03F4040C03F40153F3F00153F3F00404040004040400087
:20253000004080000040800095C0C06A95C0C06A15C0C02A15C0C02A95C0C06A95C0C06A91
:20255000156A952A156A952A956A956A956A956A004080000040800000C0C00000C0C00073
:202570006840401468404014143F3F28143F3F2840683E40C0683E40C09468C0C09468C01B
:20259000C09468C0C09468C0C0683E4040683E40143F3F28143F3F286840401468404014FB
:20041100415431300140420F02064E0025042E04420456040000000000000D270401003C7D
:20043100383C383C383C241C1818100402200D270401003C3834302C2824201C1814100C9C
:2004510008040D270401003C780C34302C2824201C1814100C08040D27044000000090040E
:200471000091049104960400D60491049604000C0591049604000C059104960401710400A8
:20049100428000000094E0000001044B4F4B0255420055024B4F024B0259044F555D025999
:2004B1000259025D5502590255044B4F4B02550255024F55024F0259025D59065559025DB6
:2004D1000255025900ACE0000002027102750A750271026D027102756D0C670275026D02CE
:2004F1006D027102750A750271026D027B02750271047B027B750271026D00ACE0000003EA
:20051100027102750A750271026D027102756D0C670275026D026D027102750A7502710282
:110531006D027B02750271047B027B750271026D0092
:20029E00415431300140420F02066600B202BB02D202EE020000000000000DB40201007CD5
:2002BE0005383C70056C052824201C1814100C08040DB40201003C383C383024180C02209F
:2002DE00022002200220022002200220040DB40201003C780C3C383C383C383C383C382444
:2002FE00201C140C04022002200220022002200DB402400000002E03002F032F0334030007
:20031E00D6032F03340300D6032F03340301160300428000000092E0000001926002539213
:20033E006001926002539260019260029260019260025392600192600253926001926002B5
:20035E009460019460025594600194600255946001946002946001946002559460019460EB
:20037E0002559460019460029260019260025392600192600253926001926002926001923D
:20039E006002539260019260025392600192600294600194600255946001946002559460F5
:2003BE00019460029460019460025594600194600255946001946002B4E0000003027B7534
:2003DE000475027B0275027F047B75027B75067B0279027504757B75027B75047B7F027BE2
:1403FE00420083027F0475027B7504837F027B027F027900BB
:2001BD00415431300140420F02064000CF01D801EC010000000000000DD10101003C383434
:2001DD00302C2824201C1814100C08040DD10101003C78063C383C383030281C0802200278
:2001FD002002200220022002200DD101400000002702002D0228022802002D0228027002A4
:20021D00002D0228027002010F020042800000008AE000000102534B554200555342004B4B
:20023D00534B55420055554B02534B55025553024B534B555553024B02534B550255530202
:20025D004B534B550255554B044B044B064B0251024B00A2E00000020A6B6308636B710218
:20027D00630A716308716B676B630A6B6308636B71027B02710277026D75026B026B716BE5
:02029D00676B8D
:20004000415431300140420F0206760056005F0073008500A4000000000000000D580001E3
:20006000FE3C3834302C2824201C1814100C08040D580001003C383C383C38342C24181034
:2000800002200D580001003C383C383C383C383C383C383C383C383C383C383C383C383C2C
:2000A000380D580001003C3C3C3C3C3C3C3C3C3C2C20100220022002200220022002200D15
:2000C000580040000000E70000E800E800ED0000E800E800ED00006F01E800ED00006F0172
:2000E000E800ED0001C8000042800000008AE00000014B946002028A60014B986002028A36
:2001000060014B9A6002028A60014B9E6002028A60014B946002028A60014B986002028A13
:2001200060014B9A6002028A60014B9E6002028A60014B946002028A60014B986002028AF3
:2001400060014B9A6002028A60014B9E6002028A60014B946002028A60014B986002028AD3
:2001600060014B9A6002028A60014B9E60020094E0000003069A6004025F02A26003069E18
:200180006004025B025F065F025B025F025B02554F9460030A9A6004025F02A86003024266
:1E01A00000029E6004025B02A26003024200029E6004025B025F025B4200635B550021
:2025B0001010101010101010101010101010101010101010141414141414141414141414DB
:2025D0001414141414141414110101010101010101010101010101010101011115010101FF
:2025F000010101010101010101010101010101151101010101010101010101010101010187
:20261000010101111501011010010110100101101001011010010115110101141401011491
:20263000140101141401011414010111150101111101011111010111110101111101011553
:20265000110101151501011515010115150101151501011115010111110101010101010156
:202670000101010101010115110101151501010101010101010101010101011115010111AA
:202690001101010101010101010101010101011511010115150101010101010101010101AE
:2026B0000101011115010111110101101001011010010110100101151101011515010114ED
:2026D0001401011414010114140101111501011111010111110101111101011111010115B3
:2026F0001101011515010115150101151501011515010111150101010101010101010101D6
:20271000010101010101011511010101010101010101010101010101010101111501010141
:20273000010101010101010101010101010101151110101010101010101010101010101064
:2027500010101011151414141414141414141414141414141414141508090909090909094F
:2027700009090909090909090909090A0F0101010101010101010101010101010101010BB0
:202790000C0D0D0D0D0D0D0D0D0D0D0D0D0D0D0D0D0D0D0E11111111111111111111111159
:2027B0001111111511111111151515151515151515151515151515151515151511010101C5
:2027D0000101010101010101010101010101011115010101010101010101010101010101A5
:2027F000010101151101010101010101010101010101010101010111150101010101010161
:20281000010101010101010101010115110101010101010101010101010101010101011154
:20283000150101010101010101010101010101010101011511010101010101010101010130
:20285000010101010101011115010101010101010101010101010101010101151101010100
:20287000010101010101010101010101010101111501010101010101010101010101010104
:2028900001010115110101101001011010010110100101101001011115010114140101140F
:2028B000140101141401011414010115111010111101011111010111110101111110101199
:2028D0001514141515010115150101151501011515141415110101010101010101010101A4
:2028F000010101010101011115010101010101010101010101010101010101151101010160
:20291000010101010101010101010101010101111101010101010101010101010101010167
:2029300001010115111010101010101010101010101010101010101115141414141414148C
:20295000141414141414141414141415080909090909090909090909090909090909090AC2
:202970000F0101010101010101010101010101010101010B0C0D0D0D0D0D0D0D0D0D0D0D80
:202990000D0D0D0D0D0D0D0E1010101010101010101010101010101010101010141414142E
:2029B000141414141414141414141414141414141111110101010101010101010101010187
:2029D00001111111151515010101010101010101010101010115151511010101010101010F
:2029F000010101010101010101111111150101010101010101101001010101010115151509
:202A10001101010101100101011414010101100101010111150101010114010101111101DB
:202A30000101140101010115110101101001010101151501010111010101011115010114A2
:202A50001401010101010101010115010101011511010111110101010101010101011110BC
:202A700010010111150101151501010101010101010115141401011511010111110101014D
:202A9000010101010101110101010111150101151501010101101001010115010101011564
:202AB00011010101011001010114140101011101010101111501010101140101011111013A
:202AD000010115010101011511010101010101010115150101010101011010111501010124
:202AF00001010101010101010101010101141415111010010101010101010101010101013E
:202B1000011111111514140101010101010101010101010101151515111111101010101064
:202B300010101010101010101011111115151514141414141414141414141414141515152C
:202B5000080909090909090909090909090909090909090A0F010101010101010101010197
:202B7000010101010101010B0C0D0D0D0D0D0D0D0D0D0D0D0D0D0D0D0D0D0D0E10101010EF
:202B90001010101010101010101010101010101014141414141414141414141414141414E5
:202BB000141414141111010101010101010101010101010101011111151501010101010131
:202BD00001010101010101010101151511010101010101010101010101010101010101117D
:202BF000150101010101010101010101010101010101011511010101101010101001011013
:202C1000101010100101011115010101111414141401011414141414010101151101010145
:202C30001501010101010101010101110101011115010101110101010101010101010115F8
:202C50000101011511010101150101010101010101010111010101111501010115010101C4
:202C70000101010101010115010101151101010115010101010101010101011101010111B8
:202C9000150101011501010101010101010101150101011511010101111010101001011049
:202CB00010101011010101111501010115141414140101141414141501010115110101019F
:202CD0000101010101010101010101010101011115010101010101010101010101010101A0
:202CF00001010115111001010101010101010101010101010101101115140101010101012B
:202D100001010101010101010101141511111010101010101010101010101010101011112C
:202D3000151514141414141414141414141414141414151508090909090909090909090984
:202D5000090909090909090A0F0101010101010101010101010101010101010B0C0D0D0DBB
:202D70000D0D0D0D0D0D0D0D0D0D0D0D0D0D0D0E1111111111111111111111111111111162
:202D9000111111111515151515151515151515151515151515151515110101010101010123
:202DB0000101010101010101010101111501010101010101010101010101010101010115AB
:202DD00011010101010101010101010101010101010101111501010101010101010101018F
:202DF000010101010101011511010110101010101010101010101010101010111501011458
:202E1000141414141414141414141414141414151101011101010101011101010101011111
:202E3000111111111501011501010101011501010101011111111115110101010101010182
:202E500001010101010101151515151115010101010110010101010110010101010101159C
:202E7000110101010101140101010101140101010101011115101010101011101010101022
:202E9000111010101001011511141414141415141414141415141414140101111515010128
:202EB000110101010101110101010101110101151111010115010101010115010101010156
:202ED000150101111515010101010101010101010101010101010115111101010101011033
:202EF000010101010110010101010111151501010101011401010101011401010101011521
:202F1000111110101010101110101010101110101010101115151414141414151414141469
:202F30001415141414141415080909090909090909090909090909090909090A0F01010119
:202F50000101010101010101010101010101010B0C0D0D0D0D0D0D0D0D0D0D0D0D0D0D0D78
:202F70000D0D0D0E101010101010101010101010101010101010101014141414141414142C
:202F900014141414141414141414141411010111010101010111010101010111111111119D
:202FB000150101150101010101150101010101151515151511010111010101010111010111
:202FD0000101011111111111150101150101010101150101010101151515151511010111B1
:202FF0000101100101110101100101110101011115010115010114010115010114010115DD
:203010000101011511010111010111010111010111010111010101111501011501011501C0
:203030000115010115010115010101151101011101011101011101011101010101010111B0
:20305000150101150101150101150101150101010101011511010111010111010111010188
:20307000111010100101011115010115010115010115010115141414010101151101011102
:203090000101110101110101111111110101011115010115010115010115010115151515F0
:2030B000010101151101010101011101010101011111111110101011150101010101150107
:2030D000010101011515151514141415110101010101110101010101111111111111111183
:2030F000150101010101150101010101151515151515151511101010101011101010101022
:2031100011111111111111111514141414141514141414141515151515151515080909095A
:203130000909090909090909090909090909090A0F010101010101010101010101010101D0
:203150000101010B0C0D0D0D0D0D0D0D0D0D0D0D0D0D0D0D0D0D0D0E1010101010101010CD
:203170001010101010101010101010101414141414141414141414141414141414141414EF
:20319000110101010101010101111101010101010101011115010101010101010115150183
:2031B00001010101010101151101010101010101010101010101010101010111151010106A
:2031D000010101010101010101010101101010151114141401010101010101010101010135
:2031F000141414111511111101010101101010100101010111111115111515150101010146
:20321000141414140101010115151511150101010101011011111111100101010101011560
:20323000110101010101011415151515140101010101011115010101010101111111111164
:20325000110101010101011511010101010101151515151515010101010101111510101041
:20327000010101011111111101010101101010151114141401010101151515150101010104
:203290001414141115111111010101010101010101010101111111151115151501010101E1
:2032B00001010101010101011515151115010101010101010101010101010101010101156A
:2032D000110101010101010101101001010101010101011115010101010101010114140146
:2032F00001010101010101151110101010101010101111101010101010101011151414140D
:203310001414141414151514141414141414141508090909090909090909090909090909CB
:203330000909090A0F0101010101010101010101010101010101010B0C0D0D0D0D0D0D0DC5
:203350000D0D0D0D0D0D0D0D0D0D0D0E101010101010101010101010101010101010101080
:20337000141414141414141414141414141414141414141411010101010111010101110171
:20339000010101011101011115010101010115010101150101010101150101151101010169
:2033B000010111010101110101010101110101111501010101011501010115010101010161
:2033D0001501011511010110010111010101110101100101110101111501011401011501EC
:2033F0000101150101140101150101151101011101011101010111010111010111010111DE
:203410001501011501011501010101010115010115010115110101110101110101010101D4
:20343000011101011101011115010115010115010101010101150101150101151101011194
:2034500001011101010101010111010111010111150101150101150101100101011501019D
:20347000150101151101011101011101011401010111010111010111150101150101150145
:2034900001150101011501011501011511010111010101010111010101110101010101115C
:2034B000150101150101010101150101011501010101011511010111010101010111010148
:2034D0000111010101010111150101150101010101150101011501010101011511101011FA
:2034F000101010101011101010111010101010111514141514141414141514141415141475
:2035100014141415080909090909090909090909090909090909090A0F0101010101010180
:2035300001010101010101010101010B0C0D0D0D0D0D0D0D0D0D0D0D0D0D0D0D0D0D0D0E61
:2035500010101010101010101010101010101010101010101414141414141414141414142B
:2035700014141414141414141101010101010101110101010101011101010111150101012F
:2035900001010101110101010101011501010115110101010101010115010101010101118F
:2035B00001010111150101011001010101010101100101150101011511010101140101014E
:2035D00001010101110101110101011115010101150101010101010111010115010101152B
:2035F0001110101011101010101010101501010001010111151414141514141414141414DC
:20361000140101000101011511010101010101010101010101010101010101111501010120
:203630000101010101010101010101010101011511010101010101101010101010101010AF
:203650001010101115010101010101141414141414141414141414151101010110010111C2
:2036700001010101010101110101011115010101140101150101010101010111010101159B
:20369000110101011101011101010101010101150101011115010101150101000101011070
:2036B000010101010101011511010101110101010101011101010101010101111501010172
:2036D00015010101010101150101010101010115111010101110101010101011101010108B
:2036F00010101011151414141514141414141415141414141414141508090909090909099E
:2037100009090909090909090909090A0F0101010101010101010101010101010101010B00
:203730000C0D0D0D0D0D0D0D0D0D0D0D0D0D0D0D0D0D0D0E101010101010101010101010B5
:20375000101010101010101014141414141414141414141414141414141414141111111105
:203770001111010101010101010111111111111115151515151101010101010101011515FD
:203790001515151511010101111101010101010101011111010101111501010115111010F3
:2037B0000101010110101111010101151101010111151414010101011414151501010111CF
:2037D0001501010101011511100101101111010101010115110101010101111514010114D5
:2037F000151501010101011115010101010101010101010101010101010101151101010129
:20381000010101010101010101010101010101111501010101010101010101010101010154
:203830000101011511010101010101010101010101010101010101111501010101011010F2
:20385000100101101010010101010115110101010101141414010114141401010101011156
:2038700015010101101015110101010115151010010101151101010114141515010101010A
:203890001111141401010111150101011511010101010101010111150101011511101010F5
:2038B0001115010101010101010111111010101115141414151501010101010101011515BA
:2038D00014141415111111111111111111111111111111111111111115151515151515158B
:2038F000151515151515151515151515080909090909090909090909090909090909090A08
:203910000F0101010101010101010101010101010101010B0C0D0D0D0D0D0D0D0D0D0D0DD0
:203930000D0D0D0D0D0D0D0E1010101010101010101010101010101010101010141414147E
:203950001414141414141414141414141414141411010101110101011101011101010111B7
:2039700001010111150101011501010115010115010101150101011511010101010101017F
:203990000101010101010101010101111501010101010101010101010101010101010115BF
:2039B000110101010101010101010101010101010101011115100101100101011001011067
:2039D0000101011001011015111401011401010114010114010101140101141115010101DF
:2039F000010101010101010101010101010101151101010101010101010101010101010173
:203A100001010111150101010101010101010101010101010101011511010101010101012E
:203A30000101010101010101010101111510010110010101100101100101011001011015C4
:203A5000111401011401010114010114010101140101141115010101010101010101010190
:203A70000101010101010115110101010101010101010101010101010101011115010101CE
:203A9000010101010101010101010101010101151101010110010101100101100101011096
:203AB0000101011115010101140101011401011401010114010101151110101011101010D8
:203AD00011101011101010111010101115141414151414141514141514141415141414157C
:203AF000080909090909090909090909090909090909090A0F0101010101010101010101E8
:203B1000010101010101010B0C0D0D0D0D0D0D0D0D0D0D0D0D0D0D0D0D0D0D0E101010103F
:203B3000101010101010101010101010101010101414141414141414141414141414141435
:203B5000141414141101010101010101011111010101010101010111150101010101010195
:203B7000011515010101010101010115110101010101010101111101010101010101011199
:203B9000150101100101100101151501011001011001011511010114010114010101010133
:203BB000011401011401011115010101010101010101010101010101010101151101010167
:203BD000010101010101010101010101010101111510100101010101011010010101010155
:203BF00001101015111414010110100101141401011010010114141115111101011414013B
:203C1000011111010114140101111115111515010101010101151501010101010115151162
:203C300015010101010101010101010101010101010101151101010101010101010101011C
:203C500001010101010101111501011001011001010101010110010110010115110101149D
:203C7000010114010110100101140101140101111501010101010101011414010101010173
:203C900001010115110101010101010101111101010101010101011115010101010101018C
:203CB000011515010101010101010115111010101010101010111110101010101010101168
:203CD0001514141414141414141515141414141414141415080909090909090909090909D5
:203CF000090909090909090A0F0101010101010101010101010101010101010B0C0D0D0D0C
:203D10000D0D0D0D0D0D0D0D0D0D0D0D0D0D0D0E4C4541475545204F462054414E4B5300B9
:203D3000505245535320454E54455220544F20504C41590053696E676C6520706C61796592
:203D50007200426174746C6520526F79616C65003120506C61796572003220506C617965EE
:203D70007273003320506C6179657273003420506C617965727300310080CD16770E00CD01
:203D9000C17621A020111000CDAB6C114000CD5674219A60CD776CCDC766CD1B45CDCE760B
:203DB00018F800003AB23DFE00200B21D23D22CD3D3E0132B23DCD37443D2803C30000C39F
:203DD0000000CDAA5BCD7F64CD295FCD25583E01CD456C3E01CD1D6C3E01CDFB52CDAC5737
:203DF00021FD3D22CD3D21D23D22D03DC9CDAA5BCDA764CD2558CD295F3E01CD456C3E01BF
:203E1000CD1D6C3E01CDFB5221253E22CD3D21FD3D22D03DC9CDAA5BCDCF64CD295FCD25C7
:203E3000583E01CD456C3E02CD1D6C3E01CDFB52CDAC5721503E22CD3D21253E22D03DC947
:203E5000CDAA5BCDF764CD295FCD25583E01CD456C3E03CD1D6C3E01CDFB5221783E22CD46
:203E70003D21503E22D03DC9CDAA5BCD1F65CD295FCD25583E02CD456C3E03CD1D6C3E02F7
:203E9000CDFB52CDAC5721A33E22CD3D21783E22D03DC9CDAA5BCD4765CD295FCD25583E03
:203EB00002CD456C3E04CD1D6C3E02CDFB5221A33E22CD3D3E0232B23D21A33E22D03DC9F7
:203ED0003AB33DFE00200B21E53E22E33E3E0132B33DC30000CD1F58CD6F65CDAA5BCD2927
:203EF0005FCD2558CDAC5721FE3E22E33EC9CDAA5BCD9765CD295FCD255821113F22E33EE2
:203F1000C9CDAA5BCDBF65CD295FCD2558CDAC5721273F22E33EC9CDAA5BCDE765CD295FC3
:203F3000CD2558213A3F22E33EC9CDAA5BCD0F66CD295FCD2558CDAC5721513F22E33EC941
:203F5000C9CD3766CD295FCD255821E53E22E33EC93E0032B23D32B33DCD8144CD8E5ECD96
:203F70001F58CD3A60CD4E563E01CD456C3E01CD1D6C3E01CDFB52C900802E20CDB8762184
:203F90008B3F3E10AE328B3F21893F3E40AE32893FC92A883F7CFE80CC8A3FC92A883FC974
:203FB000FFB03FFFB33F40304070485044504850FFB63F384028401C581440045820402CAA
:203FD00058FFC33FFFD43F08901890247830903C782C7820901478FFD73F0C2040204080D5
:203FF0000C80FFEA3F449008104410241024482C482448249044900890FFF53F26102690FE
:20401000FF0C40342034803C804850FF134014401460FF1E40305030181C181C503050305A
:20403000881C881C50FF254016501670045004401640167016404840485016501670FF387B
:204050004026302670263004302630267026304830FF514036103670361004100420362090
:204070003670362048204810FF64402418081808882488FF7B40441828182850445044880B
:20409000288828504450FF86400410049048904810FF99401050144020502870FFA4403808
:2040B000382C68046810101C102C30FFAF40488830302C3030303088FFBE400C284478FF92
:2040D000CB4024540A20FFD24048782478FFD940245008782050FFE040285048484880FF4C
:2040F000E940405028902650FFF24018602890387028901890FFFB403E50381014300410F8
:2041100014102C303010FF0841369022701C903070FF194114102090284820481490FF2417
:204130004138902C1028482C483810FF31413058245824101C58FF3E411C681010388010F7
:20415000201490FF49413428347818281878FF5641306848902C90FF614121B03FC921B31A
:204170003FC921B63FC921C33FC921D43FC921D73FC921EA3FC921F53FC9210C40C92113C4
:2041900040C9211E40C9212540C9213840C9215140C9216440C9217B40C9218640C92199F5
:2041B00040C921A440C921AF40C921BE40C921CB40C921D240C921D940C921E040C921E94F
:2041D00040C921F240C921FB40C9210841C9211941C9212441C9213141C9213E41C9214990
:2041F00041C9215641C9216141C957656C6C20706C617965640054727920616761696E0006
:20421000596F7520776F6E2073696E676C652067616D6500526573746172742077697468C0
:2042300020656E74657200436F6E74696E7565207769746820656E746572004D61696E202C
:204250006D656E7520776974682045736300002100801101803600010080EDB0CD4C51CDC4
:204270004E56CD1846FE05283FCD1846FE052812CDEC42CD2343CD5257CD38573E00325EBF
:2042900042C93AB23DFE022812CDEC42CDAD43CD5257CD38573E00325E42C9CDEC42CDF283
:2042B00043CD5257CD3857C9CD5748DD7E0C3D20B8CD6843CD5644CD3B443E01325E42C923
:2042D0003A5E42FE012007CD984DCDB84DC9DD210000CDE758CD984DCDB84DC9CD5748CDF1
:2042F0005C48DD460C052008111700DD193D20F20E260685DD360600DD360700DD7100DD24
:204310007102DD7104DD7001DD7003DD7005DD22E042C91100C00E03061ECD1B78FD212446
:2043300042CDE7741100800E03061ECD1B78FD212442CDE7741100C00E140664CD1B78FD77
:2043500021FA41CDE7741100800E140664CD1B78FD21FA41CDE774C91100C00E03061ECD2F
:204370001B78FD212442CDE7741100800E03061ECD1B78FD212442CDE7741100C00E160621
:2043900064CD1B78FD210642CDE7741100800E160664CD1B78FD210642CDE774C91100C014
:2043B0000E03061ECD1B78FD213742CDE7741100800E03061ECD1B78FD213742CDE77411A3
:2043D00000C00E160664CD1B78FD21FA41CDE7741100800E160664CD1B78FD21FA41CDE712
:2043F00074C91100C00E03061ECD1B78FD214B42CDE7741100800E03061ECD1B78FD214BA8
:2044100042CDE7741100C00E020664CD1B78FD211042CDE7741100800E020664CD1B78FD77
:20443000211042CDE774C93A5E42C9CD5748CD5C48DD460C052009111700DD193DC818F1FF
:20445000DD360C0118EB1100C00E250682CD1B78EB0E04061021B021CD71751100800E25C1
:204470000682CD1B78EB0E04061021B021CD7175C93E00325E42C921008011018036000180
:204490000080EDB0CD4E56C9DD2AE042CDE758CDB84DC9000060200410FA00C9DD21A344A9
:2044B000C94C4541475545204F462054414E4B5300505245535320454E54455220544F200C
:2044D000504C41590053696E676C6520706C6179657200426174746C6520526F79616C659F
:2044F000003120506C61796572003220506C6179657273003320506C617965727300342035
:20451000506C6179657273000500003A1A45B7CAB7453DCAC3453DCAEE45C9211A453600C8
:204530002118453605CDC766C9211A453601CD1847CD5748CD266ACD5748CD63693A1845A7
:20455000FE052805CDD03E1803CDB43DCD5863CDF361C9211A453602CD5F42C9211A453650
:2045700001CDB060CDFA47CDA344CD1847CDF948CD5748CD266ACD5748CD6369CD6754CD2E
:204590004949CD7751CD3353CDD155CD4F5BCDE94A3A1845FE052805CDD03E18AFCDB43D00
:2045B000CD5863CDF361C9CDBE45CDC245C9CD8746C9C93A19453DCCDA4D3A19453D280318
:2045D000CDD745CDDB45C9CD6048C93A1A45B7CAEA453D3DCAEA45CD7C48CD8A3FC9CDF580
:2045F00045CD0446C93AB23DFE022004CD9844C9CDD042C93AB23DFE022806CD37443D281B
:2046100003CDCB60CD8A3FC93A1845C94C4541475545204F462054414E4B5300505245538D
:204630005320454E54455220544F20504C41590053696E676C6520706C61796572004261AE
:2046500074746C6520526F79616C65003120506C61796572003220506C61796572730033E2
:2046700020506C6179657273003420506C617965727300CDC766C9CD784DCD1A4EC93A1851
:20469000453C0606B820023E01321845CDAF6826002E01CDF877CD4557C90404100490483A
:2046B00010489000000300000000003A18453DCCD846C83DCCE446C83DCCF246C83DCC006C
:2046D00047C83DCC0C47C8C93E0132B84632B94632BA46C93E0032B8463E0132B94632BA69
:2046F00046C93E0032B84632B9463E0132BA46C93E0032B84632B94632BA46C93E0132B8FF
:204710004632B94632BA46C9CDBB46CD57483AAB46DD7700DD7702DD77043AAC46DD77012F
:20473000DD7703DD77053AB346DD7706DD77073AB446DD770B3AB746DD77093AB646DD7720
:204750000C111700DD193AAD46DD7700DD7702DD77043AAE46DD7701DD7703DD77053AB3D0
:2047700046DD7706DD77073AB446DD770B3AB846DD77093AB646DD770C111700DD193AAF69
:2047900046DD7700DD7702DD77043AB046DD7701DD7703DD77053AB346DD7706DD77073A6A
:2047B000B446DD770B3AB946DD77093AB646DD770C111700DD193AB146DD7700DD7702DD8E
:2047D00077043AB246DD7701DD7703DD77053AB346DD7706DD77073AB446DD770B3ABA4662
:2047F000DD77093AB646DD770CC900000000000000000000030000000000000000000410D6
:2048100019000000000000000000000300000000000000000004101900000000000000003F
:20483000000103000000000100000000041019000000000000000000010300000000010031
:20485000000000041019C9DD21FA47C93AAA46C9CD6449CD4060CDF14ACD7E69CD536ACD5D
:204870009B4ECDB64ACDFA4DCDB84DC9CD8254CDCB60C95061757365002119453600CDF9E6
:2048900057C921194536011100C00E1E065ACD1B78FD218348CDE7741100800E1E065ACD7A
:2048B0001B78FD218348CDE774C9000000FFFFFFFFFFFFFFFFFFFFFFFFFFFFFFFFFFFFFF8E
:2048D000FF21BD4811BD48133600011400EDB0C9DD2ABB48DD7500DD7401010200DD09DD55
:2048F00022BB48C921BD48C900FF00000000000000000000000000FF0000000000000000CD
:204910000000000000FF00000000000000000000000000FF00000000000000000000000089
:2049300000FF00000000000000000000000000C9DD21F948C921F848C9CD5748CD5C48325E
:204950006C49DD226F49CD4049CD454922044ADD22014AC9CD6B49CDFF49C93E00DD21000C
:2049700000F5CDE758DD4602DD4E03DD7004DD7105DD4600DD4E01DD7002DD7103DD46001D
:20499000DD4E01DD5614DD5E15DD7E06B72827FAB5492603CD975E3D2049DD7E00DD860690
:2049B000DD7700183E2601CD975E3D2036DD7E00DD8606DD7700DD7E07B72827FAE24926F6
:2049D00004CD975E3D201CDD7E01DD8607DD770118112602CD975E3D2009DD7E01DD86072E
:2049F000DD7701F13DC8111700DD19C37149C9DD2100002100007E6FB7CAB54ADD4602DD6A
:204A10004E03DD7004DD7105DD4600DD4E01DD7002DD7103DD560ADD5E09DD7E06B7283CA5
:204A3000FE0120222603E5CD975EE13D200CDD7E06DD460080DD770018587DE5DDE5CDDF73
:204A500055DDE1E118582601E5CD975EE13D20EADD7E06DD460080DD77001836DD7E07B72D
:204A70002830FE0420162604E5CD975EE13D20CADD7E07DD4E0181DD770118162601E5CD52
:204A9000975EE13D20B4DD7E07DD4E0181DD770118007D3DC86F110E00DD19C30C4A7D3DCA
:204AB000C86FC30C4AC9DD2A6F49CD1846FE05281E3A6C492604DD460C05200125111700DF
:204AD000DD193D20F17CB7CC63453DCC6345C9DD7E0C3D20DCCC6345C9CD5748DD22F34ADC
:204AF000C9DD210000CD37783A18453D200ACD614BCDE34BCD1B4CC93D2010CD6E4BCDE351
:204B10004BCD1B4CCD374CCD744CC93D2016CD884BCDE34BCD1B4CCD374CCD744CCD954C93
:204B3000CDDB4CC93D201CCDAF4BCDE34BCD1B4CCD374CCD744CCD954CCDDB4CCD014DCDD2
:204B50004C4DC93D200ACD614BCDE34BCD1B4CC9C9DD2AF34ADD360600DD360700C9DD2AFB
:204B7000F34ADD360600DD360700111700DD19DD360600DD360700C9DD2AF34ADD3606003E
:204B9000DD360700111700DD19DD360600DD360700111700DD19DD360600DD360700C9DDA3
:204BB0002AF34ADD360600DD360700111700DD19DD360600DD360700111700DD19DD3606C3
:204BD00000DD360700111700DD19DD360600DD360700C9210808CD9F6C282FDD2AF34ADD10
:204BF0007E0C3D2825DD7E0A3D28093D280C3D280F3D2812DD3606FF1810DD3607FC180AEA
:204C1000DD3606011804DD360704C9210708CD9F6C2813DD2AF34ADD7E0C3D2809DD7E0BA5
:204C30003D2803CD4153C9210880CD9F6C2834DD2AF34A111700DD19DD7E0C3D2825DD7E47
:204C50000A3D28093D280C3D280F3D2812DD3606FF1810DD3607FC180ADD3606011804DDE5
:204C7000360704C9210780CD9F6C2818DD2AF34A111700DD19DD7E0C3D2809DD7E0B3D2858
:204C900003CD4153C9210408CD9F6C283DDD2AF34A111700DD19111700DD19DD7E0C3D2821
:204CB00029DD7E0A3DCAC44C3DCACA4C3DCAD04C3DCAD64CDD3606FF1810DD3607FC180A5E
:204CD000DD3606011804DD360704C9210504CD9F6C281DDD2AF34A111700DD19111700DDF9
:204CF00019DD7E0C3D2809DD7E0B3D2803CD4153C9210440CD9F6C2842DD2AF34A111700AB
:204D1000DD19111700DD19111700DD19DD7E0C3D2829DD7E0A3DCA354D3DCA3B4D3DCA4197
:204D30004D3DCA474DDD3606FF1810DD3607FC180ADD3606011804DD360704C9210540CDB3
:204D50009F6C2822DD2AF34A111700DD19111700DD19111700DD19DD7E0C3D2809DD7E0B15
:204D70003D2803CD4153C901CD3778210204CD9F6C28133A774D3D2807CD613FCD3945C9EF
:204D900032774DCD6C45C900CD3778210204CD9F6C280E3A974D3DC8CD39453E0132974D52
:204DB000C93E0032974DC900CD3778210804CD9F6C28113AB74D3DC8CD3B44CD2B453E0138
:204DD00032B74DC93E0032B74DC9CD3778210308CD9F6C280E3AF94D3DC8CD89483E01323D
:204DF000F94DC93E0032F94DC900CD3778210308CD9F6C280E3AF94D3DC8CD92483E0132C2
:204E1000F94DC93E0032F94DC900CD3778210808CD9F6C280E3A194E3DC8CD8E463E013281
:204E3000194EC93E0032194EC900000000000002080000000000000208000000000000027C
:204E500008000000000000020800000000000002080000000000000208000000000000021A
:204E70000800000000000002080000000000000410000000000000041000000000000004E4
:204E900010000000000000041000003A994EB72813DD21394EF5CDCD4EF13D2807110800F3
:204EB000DD1918F13A9A4EB72812DD21794EF5CDCD4EF13DC8110800DD1918F2C9DD7E02F9
:204ED0003D2804DD7702C9DD6E03DD660422E14EC300001100C0DD4E00DD4601CD1B78EB26
:204EF000DD4E06DD4607DD7E05B7280521501E180321101ECD7175110080DD4E00DD460177
:204F1000CD1B78EBDD4E06DD4607DD7E05B7280521501E180321101ECD717521374FDD75F2
:204F300003DD7404C3B8501100C0DD4E00DD4601CD1B78EBDD4E06DD4607DD7E05B7280534
:204F500021901E180321201ECD7175110080DD4E00DD4601CD1B78EBDD4E06DD4607DD7E64
:204F700005B7280521901E180321201ECD7175218B4FDD7503DD7404C3B8501100C0DD4ED0
:204F900000DD4601CD1B78EBDD4E06DD4607DD7E05B7280521D01E180321301ECD71751196
:204FB0000080DD4E00DD4601CD1B78EBDD4E06DD4607DD7E05B7280521D01E180321301E8F
:204FD000CD717521DF4FDD7503DD7404C3B8501100C0DD4E00DD4601CD1B78EBDD4E06DDD1
:204FF0004607DD7E05B7280521101F180321401ECD7175110080DD4E00DD4601CD1B78EB48
:20501000DD4E06DD4607DD7E05B7280521101F180321401ECD7175213350DD7503DD7404F6
:20503000C3B8501100C0DD4E00DD4601CD1B78EB3E00DD4E06DD4607CD2677110080DD4E6B
:2050500000DD4601CD1B78EB3E00DD4E06DD4607CD2677DD22685011000021080019DD7E69
:2050700005B7282206003A9A4E4F0D79B7280F0E000C0C0C0C0C0C0C0C3D20F5EDB03A9AFE
:205090004E3D329A4EC906003A994E4F0D79B7280F0E000C0C0C0C0C0C0C0C3D20F5EDB04B
:2050B0003A994E3D32994EC93E05DD7702C9C9FD21394E3A994EB7280FFE082001C91108B8
:2050D00000FD193D280218F6DD7E00FD7700DD7E01FD77013E02FD77063E08FD770721E316
:2050F0004EFD7503FD7404FD3602053A994E3C32994EC9DD21794E3A9A4EB7280FFE0420F8
:2051100001C9110800DD193D280218F6FD7E00DD7700FD7E01DD77013E04DD77063E10DDCA
:2051300077073E01DD770521E34EDD7503DD7404DD3602053A9A4E3C329A4EC921394EEB5F
:2051500021394E133600013F00EDB021794EEB21794E133600011F00EDB03E0032994E3227
:205170009A4EC901FF04FCCD4049CD4549229051DD229F51C9DD7E0B3D2803CD8F51C9219D
:2051900000007EF5FE05284ECDF451F13CDD210000FD22A751DD210000DD660DDD6E0C1109
:2051B0000A001966DD4600DD4E0116021E08E5CD975EE13D2801C9CD1E57DD360908DD3699
:2051D0000A02DD660DDD6E0C110B001936012A90517E3C77180DF1DD660DDD6E0C110B008B
:2051F000193600C9DDE5DD22F252DD2A9F512A90517EB72808010E00DD093D20F8DD2213BF
:2052100052FD210000DDE1DD4600DD4E01DD7E0AFE03CA3452FE02CA6452FE01CA9352FE1F
:2052300004CABF52DD7E14803C47DD7E15CB3F813D3D3D3D4FFD7000FD7101FD7002FD7116
:2052500003FD7004FD71053A7351FD7706FD360700C3E952DD7E14CB3F803D470D0D0D0DF6
:205270000D0D0D0D0DFD7000FD7101FD7002FD7103FD7004FD71053A7651FD360600FD778F
:20529000071856050505DD7E15CB3F813D3D3D3D4FFD7000FD7101FD7002FD7103FD70040F
:2052B000FD71053A7451FD7706FD360700182ADD7E14CB3F803D47DD7E15813C4FFD700010
:2052D000FD7101FD7002FD7103FD7004FD71053A7551FD360600FD7707FD360BC0FD36089E
:2052F00001210000FD750CFD740DC9FE012804FE0228153E013273513EFF3274513E043272
:2053100075513EFC327651C93E023273513EFE3274513E083275513EF8327651C9C901FF53
:2053300004FC00CD4049CD4549225153DD228353C93E00323253DD7E0B3D2803CD5053C94C
:205350002100007EFE052001C9DD4600DD4E01DD660ACDBA5316021E08CD975E3D2801C90C
:20537000CD1E57CD81532A51537E3C77DD360B01C9FD2100002A51537EB72808110E00FDE6
:20539000193D20FBFD22BC53DD229D53210000FD750CFD740DDD4600DD4E01DD660A3E0177
:2053B000323253CDBA53CD4C54C9FD2100007CFE01280DFE022827FE032844FE042860C939
:2053D0003A32533D200A3A2F53FD7706FD3607000505053E10CB3F813D3D3D3D4FC93A32C7
:2053F000533D200A3A3153FD360600FD77073E04CB3F803D470D0D0D0D0D0D0D0D0DC93AA9
:2054100032533D200A3A2E53FD7706FD3607003E04803C473E10CB3F813D3D3D3D4FC93ABD
:2054300032533D200A3A3053FD360600FD77073E04CB3F803D473E10813C4FC9FD7000FD22
:205450007002FD7004FD7101FD7103FD7105FD360A02FD360908C9CD5748CD5C48328A54CD
:20547000DD228D54CD4049CD454922BD54DD22BA54C9CD8954CDB854C93E00DD210000F505
:20549000DD7E0C3D2817CDAC3FEBDD4E04DD4605CD1B78EB3E000E040610CD2677F13DC80E
:2054B000011700DD0920D8C9DD2100002100007EB72824F5CDAC3FEBDD4E04DD4605CD1BA6
:2054D00078EB3E00DD4E0ADD4609CD2677F13DC8010E00DD0920DCC91100C0FD4E00FD4641
:2054F00001CD1B78EB3E000E040610CD2677110080FD4E00FD4601CD1B78EB3E000E0406BF
:2055100010CD26771100C0FD4E02FD4603CD1B78EB3E000E040610CD2677110080FD4E02A4
:20553000FD4603CD1B78EB3E000E040610CD26771100C0FD4E04FD4605CD1B78EB3E000EFB
:20555000040610CD2677110080FD4E04FD4605CD1B78EB3E000E040610CD2677C91100C0DA
:20557000DD4E02DD4603CD1B78EB3E00DD4E0ADD4609CD2677110080DD4E02DD4603CD1BA8
:2055900078EB3E00DD4E0ADD4609CD26771100C0DD4E04DD4605CD1B78EB3E00DD4E0ADDCC
:2055B0004609CD2677110080DD4E04DD4605CD1B78EB3E00DD4E0ADD4609CD26771100C015
:2055D000C9CD4049CD4549224856DD225056C9F5CDBF50F1F5DD6E0CDD660D110B0019364A
:2055F00000CD6D55DD22F955110000F14FFE0428163E0491010E00DD09DD220E56210000E2
:20561000EDB03D20EF1830DD221C5621000036FF23360023360023360023360023360023A2
:2056300036002336002336002336002336002336002336002336002100007E3D77C9DD219B
:2056500000002A485677B72001C9DD225F56110000EB13010E00EDB03DC818EEC9CDAC445A
:20567000CDAC3FEBDD4E00DD4601CD1B78EBDD6E02DD66030E040610CD7175C900010101A3
:20569000000100010001003A8D563D328D562009CDC06C3A8E56328D563A9056B728173AE3
:2056B0008F563D328F56200E3A9056CD61593290563E06328F563A9256B728173A91563DE3
:2056D000329156200E3A9256CDD4593292563E1E3291563A9456B728173A93563D32935633
:2056F000200E3A9456CD445A3294563E283293563A9656B728173A95563D32955620B73A94
:205710009656CD26593296563EFF329556C93A9056B72801C93E01329056C93A9256B72816
:2057300001C93E01329256C93A9456B72801C93E01329456C93A9656B72801C93E013296A6
:2057500056C93E00329256C93E06328E56328D56114000CDCA733E01328C56C93E08328E0D
:2057700056328D5611BD01CDCA733E02328C56C93E0A328E56328D56119E02CDCA733E0349
:20579000328C56C93E08328E56328D56111104CDCA733E04328C56C9CD2374C9CDA857CD96
:2057B00037443D281F3A8C56FE01280CFE02280CFE03280CFE042808CD6C57C9CD8057C92A
:2057D000CD5857C9C900000E140619111400215019CD68782100C0ED5BD557CD1176210044
:2057F00080ED5BD557CD1176C90E140619050505111400215019CD68782100C0ED5BD55787
:20581000CD1176210080ED5BD557CD1176C9003E00321E58C9CD37443D28AC3A1E583C32CC
:205830001E583A1845FE05CC9B583A1845FE05CCD7573A1845FE05C8CD4F58CDD757C93A21
:205850001E583DCC7158C83DCC7858C83DCC7F58C83DCC8658C83DCC8D58C83DCC9458C8BD
:20587000C9212C3B22D557C921383922D557C921443722D557C921503522D557C9215C33E7
:2058900022D557C921683122D557C93A1E583DCCBD58C83DCCC458C83DCCCB58C83DCCD2BE
:2058B00058C83DCCD958C83DCCE058C8C921742F22D557C921802D22D557C9218C2B22D555
:2058D00057C921982922D557C921A42722D557C921B02522D557C9DD7E09FE00280ADD46D8
:2058F0001605281ADD7016C9DD4616DD7E06B72020DD7E07B7201A052804DD7016C9DD36BB
:205910001619DD7E0A3D2804DD770AC9DD360A04C9DD361601C9FE012007113459ED533240
:2059300059C300002E02260F1E46160A0100003E02CD7C74114E59ED5332593E02C92E0298
:20595000260F1E4B16010100003E02CD7C743E00C9FE012007116F59ED536D59C300002E87
:2059700002260F1E3C16000100003E02CD7C74118959ED536D593E02C92E02260F1E3F1698
:20599000000100003E02CD7C7411A359ED536D593E02C92E02260F1E4016000100003E02C3
:2059B000CD7C7411BD59ED536D593E02C92E02260F1E4116000100003E02CD7C74ED536D5F
:2059D000593E00C9FE01200711E259ED53E059C300002E02260F1E4616000100003E02CDBC
:2059F0007C7411FC59ED53E0593E02C92E02260F1E3C16000100003E02CD7C7411165AED7E
:205A100053E0593E02C92E02260F1E3216000100003E02CD7C7411305AED53E0593E02C9FB
:205A30002E02260F1E2816000100003E02CD7C743E00C9C9FE01200711525AED53505AC337
:205A500000002E01260F1E3C16000100003E00CD7C74116C5AED53505A3E02C92E01260F38
:205A70001E3F16000100003E02CD7C7411865AED53505A3E02C92E01260F1E4116000100E7
:205A9000003E02CD7C7411A05AED53505A3E02C92E01260F1E3F16000100003E02CD7C7426
:205AB00011BA5AED53505A3E02C92E01260F1E3C16000100003E02CD7C7411D45AED53501D
:205AD0005A3E02C92E01260F1E3F16000100003E02CD7C7411EE5AED53505A3E02C92E0103
:205AF000260F1E4316000100003E02CD7C7411085BED53505A3E02C92E01260F1E001600ED
:205B10000100003E02CD7C7411225BED53505A3E02C92E01260F1E4116000100003E02CD0F
:205B30007C74113C5BED53505A3E02C92E01260F1E4416000100003E02CD7C743E00C9CD1C
:205B50004049CD454922965BDD226B5BC9F5CDBF50CD6D55F14FCD9C5BDD2100003DB72832
:205B700008110E00DD193D20FBDD22845BCD9C5B3E05911100002A845B010E0009010E00E9
:205B9000EDB03D20F82100007E3D77C9DD660DDD6E0C110B00193600C9003AA95BFE0020B0
:205BB0001ACD1846FE052808215C5D22D25B180621D75B22D25B3E0132A95BCD37443D2852
:205BD00003C30000C30000CD57483E0026082E10CD785E111700DD193E01CD785E1117004B
:205BF000DD193E01CD785E111700DD193E0026482E70CD785E111700DD1921175C22D25BB1
:205C100021D75B22D55BC9CD57483E0026482E18CD785E111700DD193E0026382E40CD7898
:205C30005E111700DD193E01CD785E111700DD193E0026082E90CD785E21565C22D25B21C8
:205C5000175C22D55BC9CD57483E0026142E50CD785E111700DD193E0026082E30CD785E16
:205C7000111700DD193E0026262E80CD785E111700DD193E0026442E30CD785E21995C221C
:205C9000D25B21565C22D55BC9CD57483E0026062E70CD785E111700DD193E0026482E507A
:205CB000CD785E111700DD193E00261A2E50CD785E111700DD193E0026302E50CD785E2180
:205CD000DC5C22D25B21995C22D55BC9CD57483E0026482E88CD785E111700DD193E002609
:205CF000162E50CD785E111700DD193E0026262E30CD785E111700DD193E0026362E10CDF1
:205D1000785E211F5D22D25B21DC5C22D55BC9CD57483E0026042E90CD785E111700DD19EA
:205D30003E0026162E50CD785E111700DD193E0026362E50CD785E111700DD193E00264815
:205D50002E10CD785E211F5D22D55BC9CD57483E0026042E10CD785E111700DD193E002663
:205D7000042E90CD785E111700DD193E0026482E10CD785E111700DD193E0026482E90CDAE
:205D9000785E111700DD19219E5D22D25BC9CD5C5D21A85D22D25BC9CD57483E0026042E05
:205DB00020CD785E111700DD193E0026182E90CD785E111700DD193E0026342E10CD785E7E
:205DD000111700DD193E0026482E80CD785E111700DD1921EA5D22D25BC9CD5C5D21F45D02
:205DF00022D25BC9CD57483E0026242E10CD785E111700DD193E0026042E90CD785E111797
:205E100000DD193E0026482E10CD785E111700DD193E0026282E90CD785E111700DD1921A5
:205E3000365E22D25BC9CD57483E0026042E10CD785E111700DD193E0026042E90CD785E0A
:205E5000111700DD193E0026482E10CD785E111700DD193E0026482E90CD785E111700DD57
:205E700019215C5D22D25BC9DD7400DD7402DD7404DD7501DD7503DD7505DD770CC93E00A8
:205E900032A95BC92C3B007CFE012824FE022847FE032805FE042828C97A8047C5D5CDF76E
:205EB0005ED1C13D28023CC97B3D814FCDF75EC93EFF8047C5D5CDF75ED1C13D28EA3CC95D
:205ED0007B814FC5D5CDF75ED1C13D28023CC97A3D8047CDF75EC93EFF814FC5D5CDF75E7B
:205EF000D1C13D28EA3CC9CB39CB39CB39CB38CB38CD1E5F79B72807111400193D20F91647
:205F10000058197EFE0128033E00C93E01C921945E7E5F237E57626BC93A965EFE00201A65
:205F3000CD1846FE05280821DA5F22515F180621565F22515F3E0132965ECD37443D2803EC
:205F5000C30000C3000011742F21945E732372216C5F22515F21565F22545FC911802D21CB
:205F7000945E73237221825F22515F216C5F22545FC9118C2B21945E73237221985F22514B
:205F90005F21825F22545FC911982921945E73237221AE5F22515F21985F22545FC911A49A
:205FB0002721945E73237221C45F22515F21AE5F22545FC911B02521945E73237221565FD6
:205FD00022515F21C45F22545FC9112C3B21945E73237221EA5F22515FC911383921945ED0
:205FF00073237221FA5F22515FC911443721945E732372210A6022515FC911503521945EFE
:20601000732372211A6022515FC9115C3321945E732372212A6022515FC911683121945E74
:2060300073237221DA5F22515FC93E0032965EC9CDAC44DD7E063DDD7706200A3EFADD77BB
:20605000063E00DD7707DD7E073D2001C9CDD2773E4A9538F845CDD2773E909538F84D1654
:20607000041E102603D5C505CD975EC1D13D20DD2601C504CD975EC13D20D2CDAC44DD70DC
:2060900000DD71013E01DD7707C908D9F5C5D5E5FDE5CD9756FDE1E1D1C1F1D908C9190444
:2060B000CD5748CD5C4832D660DD22D960CD4049CD4549229461DD229D61C9CDD560CD6D89
:2060D00056CD9361C93E00DD210000F5DD460C05CA8861CDAC3FF5EBDD4E00DD4601CD1BE9
:2060F00078F1EBDD460A3D28683D28453D2822180005280905280B05280D05280F21B02024
:20611000186F21F020186A2130211865217021186005280905280B05280D05280F21F02106
:20613000184F213022184A217022184521B022184005280905280B05280D05280F21302360
:20615000182F217023182A21B023182521F023182005280905280B05280D05280F217024BC
:20617000180F21B024180A21F024180521302518000E040610CD7175F13DC8011700DD0922
:20619000C3DB602100007EB72001C9DD210000F5CDAC3FEBDD4E00DD4601CD1B78EB0E0271
:2061B000060821501FCD7175F13DC8010E00DD0920DDC9DD2AD960DD7E0C3DCCAC620117F7
:2061D00000DD09DD7E0C3DCCD762011700DD09DD7E0C3DCC0263011700DD09DD7E0C3DCCDF
:2061F0002D63C9CD0062CD2B62CD5662CD8162C91100C00E0F06B4CD1B78EB0E0406102173
:206210003021CD71751100800E0F06B4CD1B78EB0E040610213021CD7175C91100C00E239F
:2062300006B4CD1B78EB0E040610217022CD71751100800E2306B4CD1B78EB0E04061021AB
:206250007022CD7175C91100C00E3706B4CD1B78EB0E04061021B023CD71751100800E3760
:2062700006B4CD1B78EB0E04061021B023CD7175C91100C00E4B06B4CD1B78EB0E0406101A
:2062900021F024CD71751100800E4B06B4CD1B78EB0E04061021F024CD7175C91100C00E5F
:2062B0000F06B4CD1B78EB0E04061021B021CD71751100800E0F06B4CD1B78EB0E04061012
:2062D00021B021CD7175C91100C00E2306B4CD1B78EB0E04061021F022CD71751100800E8C
:2062F0002306B4CD1B78EB0E04061021F022CD7175C91100C00E3706B4CD1B78EB0E04065C
:2063100010213024CD71751100800E3706B4CD1B78EB0E040610213024CD7175C91100C070
:206330000E4B06B4CD1B78EB0E040610217025CD71751100800E4B06B4CD1B78EB0E040657
:2063500010217025CD7175C91100C00E0106B4CD1B78EB0E10061021601FCD7175110080EE
:206370000E0106B4CD1B78EB0E10061021601FCD71751100C00E1406B4CD1B78EB0E100656
:206390001021601FCD71751100800E1406B4CD1B78EB0E10061021601FCD71751100C00E6C
:2063B0001F06B4CD1B78EB0E04061021D01DCD71751100800E1F06B4CD1B78EB0E040610D5
:2063D00021D01DCD71751100C00E2806B4CD1B78EB0E10061021601FCD71751100800E2892
:2063F00006B4CD1B78EB0E10061021601FCD71751100C00E3306B4CD1B78EB0E04061021A1
:20641000901DCD71751100800E3306B4CD1B78EB0E04061021901DCD71751100C00E3C066B
:20643000B4CD1B78EB0E10061021601FCD71751100800E3C06B4CD1B78EB0E100610216031
:206450001FCD71751100C00E4706B4CD1B78EB0E04061021501DCD71751100800E4706B426
:20647000CD1B78EB0E04061021501DCD7175C9CD5748111700DD19CD6A41DD7410DD7511C9
:20649000DD19CD6E41DD7410DD7511DD19CD7241DD7410DD7511C9CD5748111700DD19CD5C
:2064B0007641DD7410DD7511DD19CD7A41DD7410DD7511DD19CD7E41DD7410DD7511C9CD33
:2064D0005748111700DD19CD8241DD7410DD7511DD19CD8641DD7410DD7511DD19CD8A41BF
:2064F000DD7410DD7511C9CD5748111700DD19CD8E41DD7410DD7511DD19CD9241DD74101E
:20651000DD7511DD19CD9641DD7410DD7511C9CD5748111700DD19CD9A41DD7410DD7511EB
:20653000DD19CD9E41DD7410DD7511DD19CDA241DD7410DD7511C9CD5748111700DD19CD5B
:20655000A641DD7410DD7511DD19CDAA41DD7410DD7511DD19CDAE41DD7410DD7511C9CD02
:206570005748111700DD19CDB241DD7410DD7511DD19CDB641DD7410DD7511DD19CDBA418E
:20659000DD7410DD7511C9CD5748111700DD19CDBE41DD7410DD7511DD19CDC241DD74101D
:2065B000DD7511DD19CDC641DD7410DD7511C9CD5748111700DD19CDCA41DD7410DD7511EB
:2065D000DD19CDCE41DD7410DD7511DD19CDD241DD7410DD7511C9CD5748111700DD19CD5B
:2065F000D641DD7410DD7511DD19CDDA41DD7410DD7511DD19CDDE41DD7410DD7511C9CDD2
:206610005748111700DD19CDE241DD7410DD7511DD19CDE641DD7410DD7511DD19CDEA415D
:20663000DD7410DD7511C9CD5748111700DD19CDEE41DD7410DD7511DD19CDF241DD74101C
:20665000DD7511DD19CDF641DD7410DD7511C94C4541475545204F462054414E4B530050E7
:206670005245535320454E54455220544F20504C41590053696E676C6520706C6179657207
:2066900000426174746C6520526F79616C65003120506C61796572003220506C6179657285
:2066B00073003320506C6179657273003420506C617965727300013AC6663DC4A23F3E0069
:2066D00032C6662100801101803600010080EDB0CDA857CD9457CD4C511100C006050E0AE3
:2066F000CD1B78EB2160200E040610CD7175CD166726002E01CDF877CD4767CDAF68260063
:206710002E01CDF877C926002E0ECDF8771100C0060F0E0ACD1B78FD215F66CDE774260008
:206730002E06CDF8771100C006280E03CD1B78FD216F66CDE774C9CD6967CDA367CDCB6712
:20675000CD0868CD5A68C91100C006410E0FCD1B78FD218366CDE774C91100C006500E26AC
:20677000CD1B78EB2130210E040610CD7175C91100C006690E0FCD1B78FD219166CDE774AE
:20679000C91100C0067B0E02CD1B78FD219F66CDE774C91100C006870E12CD1B78EB213030
:2067B000210E040610CD7175C91100C0067B0E2ACD1B78FD21A866CDE774C91100C006879F
:2067D0000E37CD1B78EB2130210E040610CD71751100C006870E3CCD1B78EB2170220E0414
:2067F0000610CD7175C91100C006A00E02CD1B78FD21B266CDE774C91100C006AA0E0DCD80
:206810001B78EB2130210E040610CD71751100C006AA0E12CD1B78EB2170220E040610CD09
:2068300071751100C006AA0E17CD1B78EB21B0230E040610CD7175C91100C006A00E2ACD5D
:206850001B78FD21BC66CDE774C91100C006AA0E32CD1B78EB2130210E040610CD717511FA
:2068700000C006AA0E37CD1B78EB2170220E040610CD71751100C006AA0E3CCD1B78EB2143
:20689000B0230E040610CD71751100C006AA0E41CD1B78EB21F0240E040610CD7175C9CD79
:2068B000E26826002E07CDF8773A18453DCC9167CC7F67C83DCCB967CC7F67C83DCCF667CC
:2068D000CC7F67C83DCC4868CC7F67C83DCC5767C8C926002E01CDF877CD5767CD7F67CD07
:2068F0009167CDB967CDF667CD4868C94C4541475545204F462054414E4B530050524553F0
:206910005320454E54455220544F20504C41590053696E676C6520706C61796572004261AB
:2069300074746C6520526F79616C65003120506C61796572003220506C61796572730033DF
:2069500020506C6179657273003420506C617965727300CD5748CD5C48329069DD228869FB
:20697000CD4049CD4549227F69DD228C69C92100007EB7CA1F6AFD210000DD210000673E25
:20699000006FFD7E0C3D287EE5CD45497EE1B7287E67DD2A8C691601FD4600FD4E147881FD
:2069B0004FDD7E0091304EDD7E00DD860A9038451600FD4601FD4E1578814FDD7E0191301A
:2069D00034DD7E01DD860990382B7AB72027E5DDE5FDE5CDE854CD45497EFD360C01FDE5B3
:2069F000CDDF55CDC361FDE1CD2B57CD0351FDE1DDE1E1180A010E00DD0925209918077C3A
:206A1000253D28022090011700FD092DC29269C933200104FFFC21216A3A206A7721326A62
:206A3000360000DD225A6ADD225E6ACD5C4832546A21426BDD7412DD75133DC8111700DD85
:206A50001918F13E0032936ADD210000FD210000DD7E0C3D282CDD7E09FE002825F5FDE5FD
:206A700021216A7E3D280218093A206A77CDA06A180177FDE1F1DD6E13DD661222906ACD47
:206A900000003E003DC832936A111700DD1918C0CD5C4857FD7E0C3DCA356B1E00DD460047
:206AB000DD7E14804FFD7E0091300BFD7E00FD86149038021E01DD4601DD7E15804FFD7E68
:206AD00001913046FD7E01FD861590383D1D2855FD7E00DD96003029DD7E0AFE01280218FE
:206AF00044DDE5C5FDE5FD7E09FE002003CD4153CD1846FE052803CD4153FDE1C1DDE118A4
:206B100024DD7E0AFE0328D9181B1D2018FD7E01DD96013009DD7E0AFE0228C51807DD7E5D
:206B30000AFE0428BC7A3DC8111700FD1957C3A46AC921C96BDD7513DD7412C90601DD7E5F
:206B50000DDD96003013DD360600DD7E0AFE0120063A246ADD7706181B2813DD360600DD39
:206B70007E0AFE0320063A226ADD77061806DD3606000600DD7E0EDD96013013DD360700BF
:206B9000DD7E0AFE0220063A256ADD770718292813DD360700DD7E0AFE0420063A236ADD6F
:206BB00077071814DD360700B0200DDD7E0FDD7709DD360F02CD006CC9DD6610DD6E117E0A
:206BD000FEFF2821DD770D237EDD770E23DD7410DD7511DD360F03DD360902214C6BDD75A7
:206BF00013DD7412C9237EDD7711237EDD7710C93D28063D28083D280A21426B1808214CD0
:206C10006B180321C96BDD7513DD7412C9FE01280CFE02280EFE032810FE0428123E333277
:206C3000206AC93E2932206AC93E1932206AC93E0F32206AC9FE012804FE0228153E01327E
:206C5000226A3EFF32246A3E0432236A3EFC32256AC93E0232226A3EFE32246A3E08322341
:206C70006A3EF832256AC922926C3EC3F332380021886C223900FBC9F3F5C5D5E5DDE5FD02
:206C9000E5CD0000FDE1DDE1E1D1C1F1FBED4D7C57260001AA7609AEA26FC91D19067FEDAA
:206CB000597EE61FF640ED792B1DF2AF6CC90000DDE5FDE5AF32BE6C3E013DC29C6E3E01F8
:206CD0003D206F2100007E231F300E3ABF6C3C32BF6C7E23666F7E231F1F300511926DED34
:206CF000A01F300511F76DEDA01F3005115C6EEDA011716DEDA0EDA011D66DEDA0EDA0114A
:206D10003B6EEDA0EDA01F300511416DEDA01F30085E235623ED532D6D22D46C2100002230
:206D30004B6D3E0132466D326C6D32D16D32366E3E0132CF6C3E013D201E2100007E23CB23
:206D50003F3012CB3F20027E23300532BE6C1803329B6E3E01224B6D32466D3E013D205DF7
:206D7000210000CD6F7222716D38527A1F3005E60F32746FCB123004DD22626FCB12303BA9
:206D90007BC60032736F210000225F6FCB12380B2100003A846F327C6F181D68290100002B
:206DB000097E23666F7E2332846F327C6F7EB728033291702322A16D22766F3E01326C6D2A
:206DD0003E013D205D210000CD6F7222D66D38527A1F3005E60F32156FCB123004DD220360
:206DF0006FCB12303B7BC60032146F21000022006FCB12380B2100003A256F321D6F181D22
:206E10006829010000097E23666F7E2332256F321D6F7EB728033291702322066E22176F38
:206E30003E0132D16D3E013D205D210000CD6F72223B6E38527A1F3005E60F32B96ECB127D
:206E50003004DD22A76ECB12303B7BC60032B86E21000022A46ECB12380B2100003AC96EF2
:206E700032C16E181D6829010000097E23666F7E2332C96E32C16E7EB72803329170232218
:206E90006B6E22BB6E3E0132366E3E0132C96CFD21A8702100001100001922A46ECB2CCB8C
:206EB0001DCB2CCB1DEBD9110000210000CDB3703E013D200522BB6E3E0632C16E1100003E
:206ED000D91100002100007DB4281D3E0132E271CDB370AF32E2717DB428053E013D20053A
:206EF00022D56E3E0632EC6EDD7D08FD21A6702100001100001922006FCB2CCB1DCB2CCB3A
:206F10001DEBD9110000210000CDB3703E013D200522176F3E06321D6F110000D911000018
:206F30002100007DB4281D3E0132E271CDB370AF32E2717DB428053E013D200522316F3EC3
:206F50000632486F0887DDB51708FD21A47021000011000019225F6FCB2CCB1DCB2CCB1DC7
:206F7000EBD9110000210000CDB3703E013D200522766F3E06327C6F110000D911000021F6
:206F900000007DB4281D3E0132E271CDB370AF32E2717DB428053E013D200522906F3E061F
:206FB00032A76F08DDB51180C006F6ED51D921A4701EF60101F4ED7143ED7105EDA3D9EDE2
:206FD00059ED51D9ED4943ED7105EDA3D9ED59ED51D90CED4943ED7105EDA3D9ED59ED51BA
:206FF000D90CED4943ED7105EDA3D9ED59ED51D90CED4943ED7105EDA3D9ED59ED51D90C40
:20701000ED4943ED7105EDA3D9ED59ED51D90CED4943ED7105EDA3D9ED59ED51D90CED49CE
:2070300043ED710505ED79D9ED59ED51D90CED4943ED7105EDA3D9ED59ED51D90C23ED49E6
:2070500043ED7105EDA3D9ED59ED51D90C23ED4943ED7105EDA3D9ED59ED51D90CED49435E
:20707000ED7105EDA3D9ED59ED51D90CED4943ED7105EDA3D9ED59ED51D90CFDE1DDE17E03
:20709000FEFFC8329170ED4943ED7105EDA3D9ED59ED51C900000000000000000000000056
:2070B0000000004623CB18DA1171CB18382378E60F2007FD7707DD2E09C9DD2E0892300118
:2070D000AFFD7707CB18CD4372FD7500FD7401D9C9DD2E084E2379E61F280632AA70DD2E04
:2070F0000078E60F923001AFFD7707CB692003DD2CC9CB18CB71CD3572FD7500FD7401D9AD
:20711000C9CB18300F3A7C6F4F3A846FB920053EFE329170CB48C2DD71FD360710DD2E0806
:207130004E2379E60F32B270CB402857CB50CD3572FD7500FD7401D9791F1FE61C32537187
:2071500078D91800CB3CCB1DCB3CCB1DCB3CCB1DCB3CCB1DCB3CCB1DCB3CCB1DCB3CCB1D2D
:20717000300123CB6F280CD97E23D9856FD97E23D98C6722B070D9CB79C87E2332AA70DDBF
:207190002E00C9CB50CD357222B070D9791F1FE61C32A77178D91800CB25CB14CB25CB1434
:2071B000CB25CB14CB25CB14CB25CB14CB25CB14CB25CB14CB6F280CD97E23D9856FD97EA8
:2071D00023D98C67FD7500FD7401D918AACB4028103E00B72804210000C97E23666FC3B3F7
:2071F00070FD360710CB682005DD2E091813DD2E08DD63CB50CD3572FD7500FD7401D9DDB2
:207210005C462378E60F32B270CB18CB18CB50CD357222B070D9CB68C87E2332AA70DD7D26
:20723000CB9FDD6FC9280C7E23D9836FD97E23D98A67C9CB60280C7E23D9835FD97E23D904
:207250008A57D97BCB5828088623FE9038023E8FD96F26002901A372097E23666F19C97ECC
:2072700023CB3F3821D620382728173D5F7E572317300846DD682346DD60231717D0462346
:20729000B7C95E2318E71640D6015FD05E23B7C9C620C9EE0E180E4D0D8E0CDA0B2F0B8F0E
:2072B0000AF7096809E1086108E90777070C07A7064706ED0598054705FC04B4047004313E
:2072D00004F403BC03860353032403F602CC02A4027E025A0238021802FA01DE01C301AAFA
:2072F0000192017B01660152013F012D011C010C01FD00EF00E100D500C900BE00B300A997
:20731000009F0096008E0086007F00770071006A0064005F005900540050004B00470043AE
:20733000003F003C003800350032002F002D002A00280026002400220020001E001C001B94
:20735000001900180016001500140013001200110010000F000E000D000D000C000B000B0E
:20737000000A00090009000800080007000700070006000600060005000500050004000493
:207390000004000400040003000300030003000300020002000200020002000200020002B2
:2073B00000020001000100010001000100010001000100210200395E2356AF32BF6C21094A
:2073D0000019119B6EEDA04E23462322AE6D22136E22786E0911416DEDA011926DEDA01118
:2073F000F76DEDA0115C6EEDA0112D6DEDA0EDA022D46C3E0132C96C32CF6C3EFF32B27059
:207410002AAE6D5E2356EB232322766F22176F22BB6EC9DDE5FDE521AB70010005712310C2
:20743000FC3E3FC3B66F210200397E0FDA4B740FDA47742AD56EC92A316FC92A906FC921D9
:207450000200395E2356210C001922AA7421000022906F22316F22D56EC9DD22C674F1E147
:20747000D1C1DDE1DDE5C5D5E5F5DD7D0FDA92740FDA8B74DD21CD6EC39674DD21296FC3E6
:207490009674DD21886FDD7101DD70027BDD77053E0F94DD7706260029010000097E2366D0
:2074B0006F7AB720017EDD7727DD771F2323DD7508DD7409DD210000C9210200397E2100D3
:2074D000000FD2D87422906F0FD2DF7422316F0FCAE67422D56EC93AF777E6FB067FF3ED09
:2074F00079180BE5CD0D75E111040019FD23FD7E00B720EF3AF777067FED79FBC9070707D0
:207510005FE607F638DD677BE6F8DD6F016D75EBDD7E0021000007CB1507CB1509EDA00347
:2075300021000007CB1507CB1509EDA00321000007CB1507CB1509EDA00321000007CB1523
:2075500007CB1509EDA003DD2CDD7DE607C821FC07197CE63820B81150C01918B200408010
:20757000C03E7E9191327F7578EBEB0100081800EDA0EDA0EDA0EDA0EDA0EDA0EDA0EDA060
:20759000EDA0EDA0EDA0EDA0EDA0EDA0EDA0EDA0EDA0EDA0EDA0EDA0EDA0EDA0EDA0EDA00B
:2075B000EDA0EDA0EDA0EDA0EDA0EDA0EDA0EDA0EDA0EDA0EDA0EDA0EDA0EDA0EDA0EDA0EB
:2075D000EDA0EDA0EDA0EDA0EDA0EDA0EDA0EDA0EDA0EDA0EDA0EDA0EDA0EDA0EDA0EDA0CB
:2075F000EDA0EDA0EDA0EDA0EDA0EDA0EDA03DC8EB09477CE63878C27A750150C009C37A46
:2076100075FD210000F3ED7392761A47AFCB381FCB381FCB381F4FDD210000DD09DDF9C12C
:20763000712C702CC1712C70CBDCC1712D702DC1712D70CBE4C1712C702CC1712C70CB9CE3
:20765000C1712D702DC1712D70CBECC1712C702CC1712C70CBDCC1712D702DC1712D70CB93
:20767000A4C1712C702CC1712C70CB9CC1712D702DC1712D70CBAC2C2C2C2313FD2DC21A25
:2076900076310000FBFD25281001000009FD2E00EB01000009EBC31576C9FFFFFFFFFFFFB8
:2076B000FFFFFFFF7610FDC9010CBCED4904ED69C921F7777EE6FCB1067FED7977C906F58A
:2076D000ED781F30FBC9010080780CEDA8CD107730F8D551D41077CB11CB10CD107730F45C
:2076F0000C281A5E2BCB33300C1610CD1077CB1230F914CB3ACB1BE3EBED5AEDB8E130CD52
:2077100087C07E2B8FC9F32A3900EBED5621FBC9223800FBEBC9626B1213E50D3E7E9191DD
:20773000323B771803D5EDA00EFF1800EDA0EDA0EDA0EDA0EDA0EDA0EDA0EDA0EDA0EDA031
:20775000EDA0EDA0EDA0EDA0EDA0EDA0EDA0EDA0EDA0EDA0EDA0EDA0EDA0EDA0EDA0EDA049
:20777000EDA0EDA0EDA0EDA0EDA0EDA0EDA0EDA0EDA0EDA0EDA0EDA0EDA0EDA0EDA0EDA029
:20779000EDA0EDA0EDA0EDA0EDA0EDA0EDA0EDA0EDA0EDA0EDA0EDA0EDA0EDA0EDA0EDA009
:2077B000EDA0EDA0EDA0EDA0EDA0E105C85D7CC60857E638C235777BC6505F7ACEC057C3AE
:2077D00035773E013D2013ED5B94782A9678CD9878ED5394782296783E0432D3772193786F
:2077F000856F8C95676EC99D11BB78442600194E2600681946216D757807B07723A8B1778B
:207810002307E6AAB07723A8B177C97B815F8A935778E6F86F26007829444D292909E60787
:20783000070707846719C9F30182F7ED49010EF458ED4901C0F650ED49ED710192F7ED49C7
:207850003E400E0A21AA7642ED7943EDA23C0D20F60182F7ED49FBC9222976ED4313767901
:20787000329F763D933801152F5FED53A2767987872FC651329A76ED573EFBEA90783EF3FE
:20789000329476C97B1AF2597AAB57477BAC5F4F7CAD67CB18CB191FAD6F7CA9671F7D1F82
:1B78B0000E00CB19AA577BA8A95FC9004004441050145401410545115115552E
:00000001FF
